:020000040800F2
:10000000C0060020290200083B12000881110008E8
:10001000391200081F0400086915000800000000DC
:100020000000000000000000000000003F12000877
:1000300021040008000000003D12000841120008E1
:10004000430200084302000843020008430200087C
:10005000430200084302000843020008430200086C
:10006000430200084302000843020008430200085C
:10007000430200084302000843020008430200084C
:10008000430200084302000843020008430200083C
:10009000430200084302000843020008430200082C
:1000A0004302000843020008E5120008430200086A
:1000B000430200084302000843020008430200080C
:1000C00043020008430200084302000843020008FC
:1000D00043020008430200084302000843020008EC
:1000E00043020008430200084302000843020008DC
:1000F00043020008430200084302000843020008CC
:1001000043020008430200084302000843020008BB
:1001100043020008430200084302000843020008AB
:10012000430200084302000843020008430200089B
:10013000430200084302000843020008430200088B
:10014000430200084302000843020008430200087B
:10015000430200084302000843020008430200086B
:10016000430200084302000843020008430200085B
:100170004302000843020008430200080000000098
:10018000430200084302000800F002F800F03CF8C7
:100190000AA090E8000C82448344AAF10107DA45E2
:1001A00001D100F031F8AFF2090EBAE80F0013F0F8
:1001B000010F18BFFB1A43F0010318471014000089
:1001C00030140000103A24BF78C878C1FAD852071A
:1001D00024BF30C830C144BF04680C6070470000C1
:1001E0000023002400250026103A28BF78C1FBD840
:1001F000520728BF30C148BF0B6070471FB501F0E0
:10020000D7F91FBD10B510BD00F0CFF81146FFF7AC
:10021000F5FF01F0BBF900F0EDF803B4FFF7F2FFD2
:1002200003BC00F0F5F80000094880470948004782
:10023000FEE7FEE7FEE7FEE7FEE7FEE7FEE7FEE796
:10024000FEE7FEE704480549054A064B70470000F3
:10025000D512000889010008C0000020C006002057
:10026000C0020020C002002053EA020C00F06980A6
:100270002DE9F04B4FF00006002B1FBFB3FA83F5BA
:1002800003FA05F424FA05F65E4012BF1643B2FAEB
:1002900082F502FA05F4C5F120051EBF22FA05FC1D
:1002A00044EA0C04203556EA044C4FEA144418BFC3
:1002B000641C4FF000084FF00009904271EB030CF2
:1002C00039D3002919BFB1FA81F701FA07F6B0FA5C
:1002D00080F700FA07F6C7F120071EBF20FA07FCD7
:1002E00046EA0C062037B6FBF4FCA7EB0507103FE7
:1002F00007F01F0BCBF120060CFA0BFB2CFA06F6CD
:1003000044BFB3460026202FA4BF5E464FF0000B2B
:100310005BEA060C08BF4FF0010B19EB0B09ABFBB6
:10032000027C48EB0608C01B06FB02CC0BFB03CC8F
:1003300071EB0C01C1E70B46024641464846BDE859
:10034000F08B13B54FF000004FF00001AFF30080C9
:10035000BDE81C4070474FF0000200B513469446BC
:100360009646203922BFA0E80C50A0E80C50B1F10D
:100370002001BFF4F7AF090728BFA0E80C5048BF21
:100380000CC05DF804EB890028BF40F8042B08BFBF
:10039000704748BF20F8022B11F0804F18BF00F8BB
:1003A000012B7047704770477047754600F02CF876
:1003B000AE4605006946534620F00700854618B052
:1003C00020B5FFF73FFFBDE820404FF000064FF09B
:1003D00000074FF000084FF0000B21F00701AC467A
:1003E000ACE8C009ACE8C009ACE8C009ACE8C00999
:1003F0008D46704710B50446AFF300802046BDE837
:100400001040FFF70ABF0000004870475C00002062
:1004100001491820ABBEFEE7260002007047FEE748
:10042000704772B6FEE700002DE9F84FDFF8BCA177
:100430000022012503264FF00F090AF1040BAAF14F
:10044000040E00BF0B6805FA02F42340A34270D1EA
:100450000F7907F00307012F01D0022F16D187680B
:100460004FEA420806FA08FC27EA0C07D1F80CC04C
:100470000CFA08FC4CEA070CC0F808C04768A74310
:100480000C79C4F3001494403C4344600C79E44379
:10049000A4070AD0C4684FEA420C06FA0CF7BC4322
:1004A0008F6807FA0CF72743C7600C7904F0030440
:1004B000022C12D1D40800EB840CDCF82040570742
:1004C000FF0E09FA07F824EA0804D1F8108008FAA8
:1004D00007F848EA0408CCF8208004684FEA420C88
:1004E00006FA0CF7BC430F7907F0030707FA0CF77D
:1004F000274307604C6814F4403F70D03C4C276899
:1005000047F480472760246822F0030704F48044FE
:100510000094384C07EB040CDCF8084897074FEAC6
:10052000177809FA08F7BC43334FB84202D10027C5
:1005300024E054E0314FB84201D101271EE0304F92
:10054000B84201D1022719E02E4FB84201D103274A
:1005500014E02D4FB84201D104270FE02B4FB842D1
:1005600001D105270AE02A4FB84201D1062705E04C
:10057000284FB84201D1072700E0082707FA08F7FB
:100580002743CCF80878DAF800405746D1F804C081
:100590009C435FEACC2C00D51C433C60DBF8004058
:1005A0005F46D1F804C09C435FEA8C2C00D51C4305
:1005B0003C60DEF800407746D1F804C09C435FEA17
:1005C0008C3C00D51C433C60084F083F3C68D1F888
:1005D00004C09C435FEACC3C00D51C433C60521CE9
:1005E000102AFFF42FAFBDE8F88F0000083C01404F
:1005F0004438024000300140000002400004024044
:1006000000080240000C02400010024000140240AA
:1006100000180240001C024001488068704700003A
:10062000040000200248816802781144816070470C
:10063000040000200B4810B5016841F4007101600E
:10064000016841F480610160016841F480710160DA
:10065000032000F06FF8002000F006F800F024F806
:10066000002010BD003C024070B50D4D04464FF413
:100670007A712878B1FBF0F00A490968B1FBF0F013
:1006800000F0E0FA48B9102C07D200222146501E93
:1006900000F030F800206C6070BD012070BD0000DB
:1006A00004000020100000200A4808B5016841F449
:1006B00080410160006800F4804000900548001F00
:1006C000016841F080510160006800F080500090A6
:1006D00008BD000044380240002809DB00F01F027A
:1006E000012191404009800000F1E020C0F8001194
:1006F00070470000F0B40E4B1B680C46C3F3022396
:10070000C3F10705042D00D90425191D072901D2BD
:10071000002300E0DB1E012606FA05F1491E2140F8
:1007200099409E40761E16403143F0BC00F01DBF3C
:100730000CED00E0064900F0070208684FF6FF03E1
:10074000184040EA0220034A104308607047000046
:100750000CED00E00000FA052DE9F0470E4605001B
:1007600065D0DFF81481D8F80000F7B200F0070078
:10077000B04207D288F80070D8F8000000F00700F7
:10078000B04254D128683D4C810712D5400703D5AB
:10079000206840F4E05020602878000703D52068E6
:1007A00040F4604020602068A96820F0F000084311
:1007B00020602878C0072DD03049686808390128A2
:1007C00012D0022813D0032811D009688907002904
:1007D0002DDA216821F0030101432160FFF71CFF9E
:1007E000814641F2883A0EE009688903EFE709681B
:1007F0008901ECE7FFF710FFA0EB0901514502D991
:100800000320BDE8F0872068696800F00C00B0EBB9
:10081000810FEFD1D8F80010404601F00701B14236
:1008200007D90770006800F00700B04201D001202E
:10083000E7E72878400705D52068E96820F4E0500C
:10084000084320602878000706D52068296920F42D
:10085000604040EAC100206000F018F82168084AB2
:10086000C1F30311515CC84006490860064800689E
:10087000FFF7FAFE0020C4E7003C024008380240BF
:10088000BA1500081000002008000020104810B51C
:10089000006810F00C010F4818D0042916D0082960
:1008A00014D10B4C241F216801F03F0221682168FC
:1008B0000023C1F38811A1FB0001FFF7D5FC2168DB
:1008C000C1F30141491C4900B0FBF1F010BD00002B
:1008D000083802400024F4002DE9F84F04006ED0DF
:1008E0002078DFF84C93C007A9F104054AD009F13C
:1008F00004000168C1F38101012908D00068C0F338
:10090000810002280AD1D9F80000400206D52868E3
:10091000800337D560680028E1D033E06068B0F527
:10092000803F10D0B0F5A02F286810D020F4803080
:100930002860286820F4802028606068A8B1FFF74C
:100940006BFE06460DE0286840F48030F4E740F482
:1009500080202860F7E700BFFFF75EFE801B642859
:1009600073D828688003F7D50CE0FFF755FE0646DC
:1009700005E000BFFFF750FE801B6428F0D8286810
:100980008003F7D42078DFF8AC8280074FF0000AAC
:100990003ED5A748001D016811F00C0F08D0006873
:1009A000C0F3810002280BD1D9F80000400207D41F
:1009B0002868800716D5E068012800D112E033E1ED
:1009C000E068B8B10120C8F80000FFF725FE064630
:1009D00005E000BFFFF720FE801B0228C0D8286872
:1009E0008007F7D52868216920F0F80040EAC100A7
:1009F00028600DE0C8F800A0FFF70EFE064604E0F0
:100A0000FFF70AFE801B02281FD828688007F7D44A
:100A10002078000722D5864F87486169703771B109
:100A200001210160FFF7F8FD064604E0FFF7F4FD41
:100A3000801B022809D838688007F7D50EE0C0F877
:100A400000A0FFF7E9FD064605E082E0FFF7E4FDC0
:100A5000801B02287DD838688007F7D420784007AB
:100A600068D5DFF8CCB100270BF13C0BDBF80000B8
:100A7000C0000BD4DBF8001041F08051CBF800101F
:100A8000DBF80000012700F0805000906B4E3068CA
:100A9000C00510D4306840F480703060FFF7BCFDB2
:100AA000009005E0FFF7B8FD0099401A022850D8E1
:100AB0003068C005F6D55E4EA0686C3601280FD0B0
:100AC0000528306810D020F001003060306820F038
:100AD00004003060A068B8B1FFF79EFD00900FE001
:100AE000306840F00100F4E740F004003060F7E7C0
:100AF000FFF792FD0099411A41F28830814266D891
:100B000030688007F4D50EE0FFF786FD009007E01F
:100B1000FFF782FD0099411A41F28830814256D890
:100B200030688007F4D42FB1DBF8001021F0805139
:100B3000CBF80010A069C8B33D49091D0968C1F38D
:100B4000810102294AD00228504607D0C8F8600027
:100B500000E03CE0FFF760FD04463BE04746C8F894
:100B60006000FFF759FD064605E000BFFFF754FDA2
:100B7000801B02282BD828688001F7D4D4E907010C
:100B80000843A16A2E4A490802EB0141626A41EA20
:100B90008211084394F82C1040EA0161C9F8001052
:100BA00001203866FFF738FD044606E03EE000BF4E
:100BB000FFF732FD001B022809D828688001F7D50D
:100BC00034E000BFFFF728FD001B022802D90320F4
:100BD000BDE8F88F28688001F4D427E00128F7D019
:100BE000D9F80000E26900F4800191421CD1226A28
:100BF00000F03F01914217D147F6C071626A01408F
:100C0000B1EB821F10D1A26A4FF0FF3300F44031E4
:100C100003EB5202B1EB024F06D194F82C1000F016
:100C20007060B0EB016F01D00120D1E70020CFE769
:100C30000438024000004742800E474200700040E6
:100C40000000FFFF10B5401EB0F1807F01D30120EE
:100C500010BD4FF0E02460610F21601700F085FCAB
:100C60000020A06107202061002010BD7047704760
:100C700010B5040003D094F83D0010B107E0012046
:100C800010BD002084F83C00204600F01FF8022030
:100C900084F83D00211D206800F02AFB012084F823
:100CA000460084F83E0084F83F0084F8400084F851
:100CB000410084F8420084F8430084F8440084F83A
:100CC000450084F83D00002010BD000008B5006814
:100CD0000B49884212D10B48016841F48021016020
:100CE0000068002200F48020009001211A20FFF704
:100CF00001FDBDE808401A20FFF7EEBC08BD00006A
:100D0000004801404438024090F83D10012901D0CC
:100D100001207047022180F83D100168CA6842F046
:100D20000102CA6000681149884214D0B0F1804FB6
:100D300011D00F4988420ED00E4988420BD00E497F
:100D4000884208D00D49884205D00D49884202D01A
:100D50000C49884204D1816801F00701062903D0BB
:100D6000016841F00101016000207047000001406E
:100D70000004004000080040000C00400004014056
:100D8000004001400018004070472DE9F041044642
:100D90000068C66805694FF00007A90713D5B107B9
:100DA00011D5F91E01610120207720688069800734
:100DB000204602D0FFF7E8FF04E000F0A9F8204643
:100DC00000F03CF92777680716D5700714D521681D
:100DD0006FF004000861022020772068806910F419
:100DE000407F204602D0FFF7CFFF04E000F090F8EC
:100DF000204600F023F92777280715D5300713D5AB
:100E000021686FF008000861042020772068C0691D
:100E10008007204602D0FFF7B7FF04E000F078F823
:100E2000204600F00BF92777E80616D5F00614D512
:100E300021686FF010000861082020772068C069E1
:100E400010F4407F204602D0FFF79EFF04E000F040
:100E50005FF8204600F0F2F82777E80708D0F0079F
:100E600006D021686FF001000861204600F086F985
:100E7000280608D5300606D521686FF08000086185
:100E80002046FFF7F3FE680608D5700606D52168F0
:100E90006FF040000861204600F071F9A8060AD5FD
:100EA000B00608D521686FF0200008612046BDE833
:100EB000F041FFF7DCBEBDE8F081000010B586B060
:100EC000044614216846FFF746FA0E492068884216
:100ED00016D10D480021026842F00202026000684B
:100EE00000F0020005904FF4007000900220CDE960
:100EF00001010320CDE9031069460448FFF794FA85
:100F000006B010BD004801403038024000040240E5
:100F1000704770B5044690F83C0000260D46012845
:100F20000FD0012084F83C006AB1042A1DD0082AA1
:100F30002FD00C2A3FD00126002084F83C003046F8
:100F400070BD022070BD206800F04CFA20688169F5
:100F500041F0080181612068816921F0040181610B
:100F6000206881692A69114311E0206800F06AFA5B
:100F70002068816941F4006181612068816921F400
:100F800080618161206881692A6941EA0221816169
:100F9000D2E7206800F08CFA2068C16941F00801AE
:100FA000C1612068C16921F00401C1612068C16983
:100FB0002A69114311E0206800F0AEFA2068C16987
:100FC00041F40061C1612068C16921F48061C1619F
:100FD0002068C1692A6941EA0221C161ACE710B504
:100FE000040003D094F83D0010B107E0012010BDCB
:100FF000002084F83C00204600F01EF8022084F80F
:101000003D00211D206800F073F9012084F846009E
:1010100084F83E0084F83F0084F8400084F84100E2
:1010200084F8420084F8430084F8440084F84500C2
:1010300084F83D00002010BD7047000000680F4993
:1010400088421AD10E4801780029418808D0491CED
:1010500089B241805F290CD35F214180002107E0E4
:10106000491E89B24180052903D80521418001210B
:10107000017004494088096848637047004801408E
:10108000000000201400002030B500250446022294
:1010900049B1042912D008294CD094F84100012804
:1010A00053D0012030BD94F83E000128F9D184F8D6
:1010B0003E202068C26842F0020209E094F83F0036
:1010C0000128EED184F83F202068C26842F0040273
:1010D000C2600122206800F077F921492068214A86
:1010E000884201D0904203D1436C43F400434364EF
:1010F0002068884213D0B0F1804F10D01A4988423E
:101100000DD01A4988420AD01949884207D0904226
:1011100005D01849884202D01749884204D1816815
:1011200001F00701062903D0016841F001010160C7
:10113000284630BD94F840000128B2D184F8402000
:101140002068C26842F00802C2E784F841200C29F6
:1011500001D00125ECE72068C26842F01002B7E731
:10116000000001400004014000040040000800406D
:10117000000C0040004001400018004070477047DC
:10118000FEE70000114808B5016841F00401016064
:10119000016801F004010091016841F080010160E3
:1011A000016801F080010091016841F001010160D6
:1011B000016801F001010091016841F00201016044
:1011C000006800F00200009008BD000030380240C6
:1011D00010B588B01C216846FFF7BDF815481449C2
:1011E0000024016041F28731C0E901146421C0E9A3
:1011F00003148461FFF73CFD08B1FFF712F90D48B5
:10120000FFF7EDFE08B1FFF70CF9602000903220E7
:10121000CDE901040022694606480494FFF779FEEF
:1012200008B1FFF7FEF80348FFF748FE08B010BD0D
:101230000048014014000020FEE7FEE770477047B9
:10124000FFF7F0B930B593B030216846FFF783F867
:1012500014210CA8FFF77FF81C480025016841F015
:1012600080510160006800F08050119018480168BA
:1012700041F4804101600068022400F48040119034
:1012800001200090000401908001CDE90640082073
:1012900008903220CDE9090404200B906846FFF73E
:1012A0001BFB08B172B6FEE70CA90F2081E83100E4
:1012B0004FF480500F90109001210CA8FFF74CFACA
:1012C000002801D072B6FEE713B030BD40380240AE
:1012D000007000400248016841F4700101607047ED
:1012E00088ED00E00148FFF750BD00001400002029
:1012F000F0B50268294C2A4D2A4E2B4F2B4B4FF04C
:10130000804CA04209D0604507D0A84205D0B04229
:1013100003D0B84201D0984204D122F0700E4A683E
:1013200042EA0E02A0421BD0604519D0A84217D055
:10133000B04215D0B84213D0984211D01C4DA842EB
:101340000ED01C4DA8420BD01B4DA84208D01B4DFF
:10135000A84205D01A4DA84202D01A4DA84203D186
:1013600022F44075CA682A434D6922F080022A435C
:1013700002608A68C2620A688262A04201D0984212
:1013800001D109690163012141610169C90703D0E4
:10139000016921F001010161F0BD00000000014080
:1013A0000004004000080040000C00400004014020
:1013B0000040014000440140004801400018004046
:1013C000001C00400020004010B501F01F03012167
:1013D000046A99408C430462016A9A401143016295
:1013E00010BD0000F0B5036A026A22F00102026239
:1013F00042688469124E24F073050C682C4323F074
:1014000002058B682B430D4DA84201D0B04205D197
:1014100023F00807CB683B4323F00403A84201D024
:10142000B04205D14D6922F4407215438A692A43BE
:1014300042608461496841630362F0BD000001407D
:1014400000040140F0B5026A036A23F0100303624E
:10145000436884690D6824F4E64444EA05248D68F1
:1014600022F0200242EA05120F4D104EA84201D090
:10147000B04206D1CF6822F0800242EA071222F081
:101480004002A84201D0B04207D14D6923F4406325
:1014900043EA85038D6943EA8503436084614968B3
:1014A00081630262F0BD00000000014000040140C1
:1014B000F0B5026A036A23F4807303624368C46967
:1014C00022F4007224F073050C68124E2C438D68D0
:1014D00042EA05220E4DA84201D0B04206D1CF68A3
:1014E00022F4006242EA072222F48062A84201D07C
:1014F000B04207D14D6923F4405343EA05138D6987
:1015000043EA05134360C4614968C1630262F0BDE8
:10151000000001400004014030B5046A026A22F470
:10152000805202624268C3690D6823F4E64343EACD
:1015300005238D6824F4005444EA0534084DA8427C
:1015400002D0084DA84204D14D6922F4804242EAFB
:1015500085124260C36149680164046230BD0000C5
:101560000000014000040140FEE70907090E0028C1
:1015700004DB00F1E02080F80014704700F00F0059
:1015800000F1E02080F8141D70470000FFF752F8CA
:10159000FFF758FEFFF7F6FDFFF71AFE0348FFF7C7
:1015A000B3FB00210148FFF76FFDFEE714000020A8
:1015B0004FF04070E1EE100A70470000000000009C
:1015C000000001020304060708090000EC150008EA
:1015D0000000002014000000C401000800160008EC
:1015E00014000020AC060000E001000801003200F9
:1015F0000100000010000000000000000024F400C2
:040000050800018965
:00000001FF
